:100000000C94E9000C9411010C9411010C94110151
:100010000C9411010C9411010C9411010C94110118
:100020000C9411010C9411010C9411010C94BA035D
:100030000C944F070C9411010C9411010C941101B4
:100040000C9437020C9411010C94430B0C941D0B6F
:100050000C9411010C9411010C9411010C941101D8
:100060000C9411010C9411012C20000D0A53442012
:10007000492F4F206572726F723A20004572726F7D
:10008000723A200046696C6527732053616D706C6D
:1000900065205261746520446F6573204E6F742033
:1000A0004D617463682053657474696E67732100D1
:1000B00046696C65277320426974204465707468D2
:1000C00020446F6573204E6F74204D617463682007
:1000D00053657474696E6773210046696C65277394
:1000E000204368616E6E656C20436F756E742044AA
:1000F0006F6573204E6F74204D6174636820536583
:100100007474696E67732100466F756E642046696A
:100110006C6500436F756C64206E6F742066696E49
:10012000642066696C650066696C652E6F70656E2B
:10013000206661696C6564000000000024002700EF
:100140002A004572726F723A200043616E27742054
:100150006F70656E20726F6F742064697221004E3B
:100160006F2076616C69642046415420706172741E
:100170006974696F6E21004361726420696E6974ED
:100180002E206661696C6564210000000000250076
:1001900028002B00040404040404040402020202E4
:1001A000020203030303030301020408102040803A
:1001B00001020408102001020408102000000008B9
:1001C000000201000003040700000000000000001E
:1001D000F90F11241FBECFEFD8E0DEBFCDBF11E075
:1001E000A0E0B1E0ECE8F3E202C005900D92AA3B7A
:1001F000B107D9F722E0AAEBB1E001C01D92AD36FC
:10020000B207E1F710E0C9EED0E004C02197FE018B
:100210000E949C11C83ED107C9F70E94110C0C9492
:10022000C4110C940000089580E090E00895FC0152
:10023000538D448D252F30E0842F90E0821B930B4B
:10024000541710F0CF96089501970895FC01918DF1
:10025000828D981761F0828DDF01A80FB11D5D9628
:100260008C91928D9F5F9F73928F90E008958FEF96
:100270009FEF0895FC01918D828D981731F0828D4A
:10028000E80FF11D858D90E008958FEF9FEF0895A1
:10029000FC01918D228D892F90E0805C9F4F821B05
:1002A00091098F739927089580E090E0892B29F0B8
:1002B0000E94110B81110C9400000895FC01848DA3
:1002C000DF01A80FB11DA35ABF4F2C91848D90E080
:1002D00001968F739927848FA689B7892C93A0895B
:1002E000B1898C91837080648C93938D848D9813E5
:1002F00006C00288F389E02D80818F7D8083089578
:10030000EF92FF920F931F93CF93DF93EC0181E065
:10031000888F9B8D8C8D981305C0E889F989808121
:1003200085FD26C0F62E0B8D10E00F5F1F4F0F735B
:100330001127E02E8C8DE8120CC00FB607FCFACF07
:10034000E889F989808185FFF5CFCE010E945E01A1
:10035000F1CF8B8DFE01E80FF11DE35AFF4FF082C4
:100360009FB7F8940B8FEA89FB89808180620AC06D
:100370009FB7F894EE89FF896083E889F9898081C5
:100380008370806480839FBF81E090E0DF91CF9194
:100390001F910F91FF90EF900895CF93DF93EC01A1
:1003A000888D8823C9F0EA89FB89808185FD05C095
:1003B000A889B9898C9186FD0FC00FB607FCF5CFCF
:1003C000808185FFF2CFA889B9898C9185FFEDCF17
:1003D000CE010E945E01E7CFDF91CF910895CF93C8
:1003E000DF9390E0FC01E855FE4F2491FC01EC56B0
:1003F000FE4F8491882361F190E0880F991FFC01E2
:10040000E85CFE4FC591D491FC01E657FE4FA591E3
:10041000B491611109C09FB7F89488812095822317
:100420008883EC912E230BC0623061F49FB7F8945F
:100430008881322F309583238883EC912E2B2C9347
:100440009FBF06C08FB7F894E8812E2B28838FBFFB
:10045000DF91CF9108952FB7F8946091BF0170910B
:10046000C0018091C1019091C2012FBF08951F92D8
:100470000F920FB60F9211242F933F938F939F9358
:10048000AF93BF938091BF019091C001A091C10132
:10049000B091C2013091BE0123E0230F2D3720F42B
:1004A0000196A11DB11D05C026E8230F0296A11DCE
:1004B000B11D2093BE018093BF019093C001A09312
:1004C000C101B093C2018091BA019091BB01A0918A
:1004D000BC01B091BD010196A11DB11D8093BA016F
:1004E0009093BB01A093BC01B093BD01BF91AF91AC
:1004F0009F918F913F912F910F900FBE0F901F9062
:100500001895CF93DF93EC01FE016491662331F0DF
:100510008CEC91E00E9480012196F6CFDF91CF9183
:1005200008950E94810288E191E00C94BE0B8EBD7B
:100530000DB407FEFDCF0895CF93DF93FC018681B4
:100540008823E9F08FEF8EBD2FEF87819085AC0176
:100550004F5F5F4F508747838130924028F40DB43E
:1005600007FEFDCF2EBDF1CF0DB407FEFDCFEF018D
:1005700081E00E94750B8FEF0E9497021E82DF912F
:10058000CF9108958FEF0E9497028EB50895CF9274
:10059000DF92EF92FF921F93CF93DF93162F6901A3
:1005A0007A010E949C0280E00E94750B0E942B023F
:1005B000EB010E94C2028F3F39F4812F80640E94B8
:1005C0009702C8E1D0E008C00E942B026C1B7D0B93
:1005D0006D32714070F3F1CFD701C6010C2E04C00B
:1005E000B695A795979587950A94D2F70E9497029A
:1005F0002897C83F8FEFD80779F7112321F01830DB
:1006000021F487E803C085E901C08FEF0E949702BB
:10061000C0E00E94C20287FF04C0CF3F11F0CF5F4D
:10062000F8CFDF91CF911F91FF90EF90DF90CF90A7
:1006300008958F929F92AF92BF92CF92DF92EF92E6
:10064000FF920F931F93CF93DF93EC015901680141
:100650008E81882371F088819981AA81BB8184175A
:100660009507A607B70729F48F81988528173907BA
:10067000B0F5488359836A837B838B85833039F057
:1006800089E0440F551F661F771F8A95D1F79A019D
:10069000AB0161E1CE010E94C702182F882321F02F
:1006A00083E08C8310E058C00E942B024B010E9413
:1006B000C2028F3F51F40E942B02681979096D32F2
:1006C0007140A8F38DE08C8347C08E3F21F090E10C
:1006D0009C838D8341C018861F8281E08E838FEFBB
:1006E0008EBD2FEF8F8198858A159B0550F40DB430
:1006F00007FEFDCF2EBD8F819885019698878F8349
:10070000F1CF870101501109F6018FEF9F012C19DC
:100710003D092017310738F40DB407FEFDCF9EB513
:1007200091938EBDF3CF0DB407FEFDCF8EB5F601CC
:10073000E00FF11F80838F819885E80EF91EF886FF
:10074000EF828985882321F0E11482E0F80618F011
:10075000CE010E949C0211E0812FDF91CF911F9169
:100760000F91FF90EF90DF90CF90BF90AF909F9050
:100770008F9008951F920F920FB60F9211242F930E
:100780003F934F935F936F937F938F939F93AF9319
:10079000BF93CF93DF93EF93FF93E091C301F09169
:1007A000C401309709F495C0DF01AE5FBC4F8D9155
:1007B0009C911197181619060CF08BC01C96CF014E
:1007C000845F9C4F4D915C911197EC012881398198
:1007D0004217530740F12081213009F07AC0BF0150
:1007E000605F7C4FEB012881398111963C932E93F9
:1007F000AF014E5E5C4FEA0148815981EC0159839B
:1008000048838B5093402817390719F4CF018F5F25
:100810009E4FEB019983888382E0808380916F00F3
:10082000846080936F00ED91FC9111978191ED931D
:10083000FC935A985C985B9A5B985B9A5B985C9A7D
:100840005B9A5B985B9A5B9887FF02C05C9A01C0D9
:100850005C985B9A5B9886FF02C05C9A01C05C98CA
:100860005B9A5B9885FF02C05C9A01C05C985B9ABA
:100870005B9884FF02C05C9A01C05C985B9A5B98AD
:1008800083FF02C05C9A01C05C985B9A5B9882FF10
:1008900002C05C9A01C05C985B9A5B9881FF02C0C1
:1008A0005C9A01C05C985B9A5B9880FF02C05C9A7E
:1008B00001C05C985B9A5B985C985B9A5B985C98CB
:1008C0005B9A5B985C985B9A5B985C985B9A5B9888
:1008D0005A9AFF91EF91DF91CF91BF91AF919F9184
:1008E0008F917F916F915F914F913F912F910F90D9
:1008F0000FBE0F901F9018958C01EB018CE790E0D4
:100900000E948102C8010E9481028C818823D9F053
:100910008BE690E00E9481026C8170E080E090E0C4
:1009200040E10E94D00B88E690E00E9481026D8138
:1009300070E080E090E040E10E94D00B88E191E01F
:100940000E94BE0BFFCFFFCFEF92FF920F931F933A
:10095000CF93DF9300D000D0CDB7DEB74230510542
:1009600061057105E8F0FC0105811681278130855C
:100970000E5F1F4F2F4F3F4F4017510762077307FE
:1009800078F4FC018289803279F59A01220F331FB5
:10099000220F331F3170C90104968130924020F03C
:1009A00060E070E0CB0143C0B7E07695679557955E
:1009B0004795BA95D1F786859785A089B189480F63
:1009C000591F6A1F7B1F14E0E12EF12C8E010F5F6F
:1009D0001F4F838994890E941903882309F3698131
:1009E0007A818B819C8123C08031D1F69A01220FBC
:1009F000331F3170452F562F672F772786859785B0
:100A0000A089B189480F591F6A1F7B1FA2E0EA2EF7
:100A1000F12C8E010F5F1F4F838994890E94190367
:100A2000882309F4BDCF69817A8180E090E00F903E
:100A30000F900F900F90DF91CF911F910F91FF902A
:100A4000EF9008954F925F926F927F928F929F9254
:100A5000AF92BF92CF92DF92EF92FF92CF93DF934C
:100A600000D000D000D0CDB7DEB79E838D83DC01EF
:100A70001996CD90DD90ED90FC901C9746015701A2
:100A8000840E951EA61EB71E11968D919D910D90F8
:100A9000BC91A02D88159905AA05BB0510F480E02E
:100AA0006FC0AD81BE815196ED91FC91529740800F
:100AB000512C612C712CC501B40129E096958795C4
:100AC000779567952A95D1F7A30192010E945B1152
:100AD00029833A834B835C83C701B60139E096953D
:100AE0008795779567953A95D1F7A30192010E9472
:100AF0005B11C980DA80EB80FC80C21AD30AE40A59
:100B0000F50AED81FE8181869286A386B486808176
:100B1000982F9770923081F083FF2CC0ED81FE8179
:100B200085819681A781B085C80ED91EEA1EFB1E5D
:100B3000C582D682E782F08681E022C0ED81FE8107
:100B40004581568167817085818992890E94A404BC
:100B5000AD81BE8115966D937D938D939C9318976F
:100B6000B1E0CB1AD108E108F108672B682B692B9B
:100B700009F495CFC114D104E104F104F9F6DCCFF6
:100B800026960FB6F894DEBF0FBECDBFDF91CF9192
:100B9000FF90EF90DF90CF90BF90AF909F908F909D
:100BA0007F906F905F904F9008952F923F924F9259
:100BB0005F926F927F928F929F92AF92BF92CF92ED
:100BC000DF92EF92FF920F931F93CF93DF9300D0AA
:100BD00000D01F92CDB7DEB76C013B015A83498329
:100BE000A12CB12C29803A80A214B30408F099C03A
:100BF000D60119960D911D912D913C911C9748019C
:100C0000B1E09B2280E092E0881999092A183B08FC
:100C10003C822B828215930510F49C838B83F60112
:100C200041815281638174812B803C80C101A0E0AD
:100C3000B0E01A012B01201A310A420A530A281681
:100C400039064A065B0628F42A01401A510A5C82DA
:100C50004B82D6018C9187705196ED91FC91529701
:100C60007801890199E016950795F794E7949A958C
:100C7000D1F7823049F44789508D618D728D4E0DC8
:100C80005F1D601F711F2BC020802D82D60115961D
:100C90002D913D914D915C91189722503109410958
:100CA0005109A22DB0E00E947D1121853285438536
:100CB00054851B012C01220E331E441E551EB20109
:100CC000A101CD010197092E000CAA0BBB0B8E21AF
:100CD0009F21A023B123480F591F6A1F7B1F4B8000
:100CE0005C80452831F42B803C8012141304DCF026
:100CF00014C02B813C81280D391D2130324050F425
:100D0000EB80FC8083019401838994890E941903FC
:100D10008111E9CF8FEF9FEF18C04B805C8057FCAB
:100D2000F9CFC50112C02B803C80A101330C660BAA
:100D3000770BC6010E942205882361F32B803C803B
:100D4000620C731CA20CB31C4DCF0F900F900F9030
:100D50000F900F90DF91CF911F910F91FF90EF9027
:100D6000DF90CF90BF90AF909F908F907F906F90CB
:100D70005F904F903F902F900895AF92BF92CF9287
:100D8000DF92EF92FF920F931F93CF93DF93CDB734
:100D9000DEB728970FB6F894DEBF0FBECDBF5B015C
:100DA0008A017901F90186899789A08DB18D2D5F1E
:100DB0003F4F6901892B8A2B8B2B39F548E050E096
:100DC000BE016F5F7F4FC6010E94D505089719F0DD
:100DD0008FEF9FEF53C044E050E06BE171E0CE0134
:100DE00001960E94B6114D815E816F817885892BB5
:100DF00031F4F701468B578B608F718F06C0C601A7
:100E00000E9422058111DACFE3CF980140E050E043
:100E1000F70164857585868597850E945B11C801F9
:100E2000861B970BA8018017910708F4AC01F70106
:100E300086899789A08DB18D8A0120E030E08017E6
:100E40009107A207B30708F4AC01B501C6010E94DF
:100E5000D5051816190694F48C01092E000C220BE6
:100E6000330BF70146895789608D718D401B510BFB
:100E7000620B730B468B578B608F718F28960FB662
:100E8000F894DEBF0FBECDBFDF91CF911F910F91C0
:100E9000FF90EF90DF90CF90BF90AF9008951F929A
:100EA0000F920FB60F9211242F923F924F925F92A2
:100EB0006F927F928F929F92AF92BF92CF92DF926A
:100EC000EF92FF920F931F932F933F934F935F9354
:100ED0006F937F938F939F93AF93BF93EF93FF9302
:100EE000CF93DF9300D000D0CDB7DEB780916F00F5
:100EF0008B7F80936F008091C3019091C4019C838C
:100F00008B83DC018C91823009F0CFC0AE5EBC4F88
:100F1000BA83A983EB80FC80B0EFEB1ABCEFFB0A2D
:100F2000F70180819181A981BA818D939C932B8057
:100F30003C80BCEF2B1A3B0A4B805C80E4EF4E1ADE
:100F4000ECEF5E0A8101BB24B3946B807C80FFEFE1
:100F50006F1AFDEF7F0ACB80DC808EEFC81A8CEF12
:100F6000D80AD801ED91FC918081882309F492C0C0
:100F70007894F8012081318140E051E0B3018B8108
:100F80009C810E94BD069C01181619060CF055C0E4
:100F9000A981BA818D919C911197AC01421B530B91
:100FA000F701608171814617570720F4820F931F64
:100FB0008D939C93BB2039F15301E0E0F0E0E11503
:100FC00081E0F80711F4B12C65C0D701E217F307EF
:100FD0007CF48D909C908E0E9F1ED5018C9190E09C
:100FE000D6016D917C910E944711D4016C9306C08B
:100FF0008D919C91DC01AE0FBF1F1C923196BFEF0B
:10100000AB1ABB0ADCCF4301E0E0F0E0D701AD90C2
:10101000BC90AE0EBF1ED4018D914D0190E0D60163
:101020006D917C910E944711D5018C91680F6C9352
:1010300031962E173F0751F7C6CFD801ED91FC919D
:101040001197108213826D917C91FB014181528135
:10105000D1012D913D91F901818192814817590764
:101060001CF4019792838183A415B50591F7EFEFE6
:10107000FFEFDB011296FC93EE931197D6018D9151
:101080009C91119701978D939C93FB01168A178A67
:10109000108E118E0E5F1F4F0415150509F061CFDC
:1010A00081E0AB81BC818C93F8940F900F900F90EE
:1010B0000F90DF91CF91FF91EF91BF91AF919F91F1
:1010C0008F917F916F915F914F913F912F911F91E0
:1010D0000F91FF90EF90DF90CF90BF90AF909F90D7
:1010E0008F907F906F905F904F903F902F900F90D8
:1010F0000FBE0F901F9018952F923F924F925F92C4
:101100006F927F928F929F92AF92BF92CF92DF9217
:10111000EF92FF920F931F93CF93DF93CDB7DEB77C
:10112000C654D1090FB6F894DEBF0FBECDBF8C01F7
:101130006B01E096EEACFFACE097E1962FACE19747
:10114000E2963FACE2976C968FAD6C9787708230D9
:1011500008F4BFC040E250E0BE016F5F7F4FCE0198
:10116000855A9F4F0E94D505803209F0B2C089810F
:10117000882309F4AEC0853E69F38E3259F38C851D
:1011800083FDE8CF8871782E20E1821749F04BE08B
:1011900050E0B601CE0101960E94B611892B99F656
:1011A000F7018289803108F497C08D889E88A12C30
:1011B000B12CD401992788278B8C9C8CA12CB12C25
:1011C000882A992AAA2ABB2A71101AC04D8C5E8CD3
:1011D0006F8C78A081E0F801808341825282638223
:1011E000748285829682A782B086118612861386C3
:1011F000148685869686A786B08AF28AE18A71C0AF
:10120000F0E17F1269C0B501A401412C512C3201DB
:10121000C7010E94A404AB01BC0141155105610541
:10122000710579F0F701808190E0982F8827990F58
:10123000092E000CAA0BBB0B480E591E6A1E7B1E02
:10124000E7CFF4E0FCAB4DAA5EAA6FAA78AE89AEF8
:101250009AAEABAEBCAE21961CAE1DAE1EAE1FAE9E
:10126000219725968CAE9DAEAEAEBFAE2597279644
:10127000FFAEEEAE27973F922F92FF92EF922DB7DF
:101280003EB7235131090FB6F8943EBF0FBE2DBFB4
:10129000ADB7BEB7119683E1FE01F49601900D92B1
:1012A0008A95E1F7B601CE0181960E947C0889A15A
:1012B00087700FB6F894DEBF0FBECDBF09F443CFE1
:1012C00083E1FE01B196D80101900D928A95E1F774
:1012D00008C0F801108205C0B10187E291E00E94C8
:1012E0007C04C801CA5BDF4F0FB6F894DEBF0FBEA7
:1012F000CDBFDF91CF911F910F91FF90EF90DF90C5
:10130000CF90BF90AF909F908F907F906F905F90A5
:101310004F903F902F900895CF92DF92EF92FF92DF
:101320000F931F93CF93DF93CDB7DEB7A5970FB67B
:10133000F894DEBF0FBECDBF8C01F8948B5E9C4F3E
:101340009F938F930C969F938F93F801E05CFC4FD3
:101350002DB73EB7235131090FB6F8943EBF0FBEEB
:101360002DBFADB7BEB7119683E101900D928A955E
:10137000E1F7CE0101960E947C08898187700FB643
:10138000F894DEBF0FBECDBF19F483E191E054C0E5
:1013900088E091E00E9491024CE050E0BE016C5E5A
:1013A0007F4FCE0101960E94D5050C9709F046C0EB
:1013B00044E050E060E271E0CE0144960E94B61134
:1013C000892BE1F544E050E065E271E0CE014C96F6
:1013D0000E94B611892B91F548E050E0BE016C5E89
:1013E0007F4FCE0101960E94D505089739F544E05C
:1013F00050E06AE271E0CE0144960E94B611892B5A
:10140000E9F4C88CD98CEA8CFB8CC6018D7F40979F
:1014100069F4A601BE016C5E7F4FCE0101960E9469
:10142000D5058C159D0551F41D8A1C8A8E899F89CE
:10143000019739F08AED90E00E9491027894F12CA6
:10144000B6C08AA19BA1089719F080EB90E0F4CF79
:10145000888D998DAA8DBB8D80349F41A105B105E2
:1014600019F084E890E0E8CF7894F801EC5FFC4F45
:10147000AF0180E090E020E030E0DA01CD90DD9037
:10148000AD01D601FC90F11043C0F894880F991F6C
:10149000800F911F8C5F9C4FFC01A081B18121E0E6
:1014A0002C93F801EE5FFC4F2081318112963C9322
:1014B0002E9311972F5F3F4F3183208323E1FE014D
:1014C0003196139601900D922A95E1F7DC01ED918A
:1014D000FC91168A178A108E118E7894FC01208157
:1014E000318140E050E060E070E0C8010E94BD063C
:1014F00097FD5DC0F801EF5FFC4FF080F11057C021
:1015000080916F00826080936F00FF24F3944FC03E
:10151000D60111966D917C911297672B09F4960173
:1015200001968430910509F0A8CFA801445F5C4F73
:10153000A191B19111968D919C911297181619064F
:101540002CF4019712969C938E9311974E175F0778
:1015500079F7F89483E090E0F9019283818383E145
:10156000FE013196D901139601900D928A95E1F70B
:10157000D90156961D921D921D921C9259977894EE
:10158000F801EF5FFC4F8081811105C080916F00F1
:10159000826080936F0040E050E060E070E0C8013E
:1015A0000E94BD069095F92EFF1CFF24FF1C8F2D75
:1015B000A5960FB6F894DEBF0FBECDBFDF91CF91D9
:1015C0001F910F91FF90EF90DF90CF900895CF92F1
:1015D000DF92EF92FF920F931F93CF93DF936C01F3
:1015E0007A018B01C0E0D0E0CE15DF0581F0D80193
:1015F0006D918D01D601ED91FC910190F081E02D6E
:10160000C6010995892B11F02196EECF7E01C70105
:10161000DF91CF911F910F91FF90EF90DF90CF90CE
:1016200008958CEC91E00E94480121E0892B09F497
:1016300020E0822F08950E94B1111F920F920FB6E1
:101640000F9211242F933F934F935F936F937F9348
:101650008F939F93AF93BF93EF93FF938CEC91E0A5
:101660000E945E01FF91EF91BF91AF919F918F9189
:101670007F916F915F914F913F912F910F900FBE8E
:101680000F901F9018951F920F920FB60F92112472
:101690002F938F939F93EF93FF93E091DC01F09151
:1016A000DD018081E091E201F091E30182FD12C051
:1016B00090818091E5018F5F8F732091E601821701
:1016C00051F0E091E501F0E0E453FE4F958F8093F7
:1016D000E50101C08081FF91EF919F918F912F9142
:1016E0000F900FBE0F901F901895E6ECF1E09491CB
:1016F000E2EBF1E02491EEE9F1E0E491EE2309F46C
:101700003CC0992339F1933091F038F49130A9F02D
:10171000923001F594B59F7D12C0973091F09830CA
:10172000A1F09430B9F4909180009F7D03C0909116
:1017300080009F77909380000DC094B59F7794BDF3
:1017400009C09091B0009F7703C09091B0009F7D39
:101750009093B000F0E0EE0FFF1FE657FE4FA5910B
:10176000B4919FB7F894811104C08C9120952823DF
:1017700002C0EC912E2B2C939FBF0895009769F027
:10178000FC0101900020E9F73197AF01481B590B8C
:10179000BC018CEC91E00C94E70A80E090E00895A5
:1017A0008F929F92AF92BF920F931F93CF93DF932D
:1017B000CDB7DEB7A1970FB6F894DEBF0FBECDBF91
:1017C00019A2423008F44AE08E010F5D1F4F842EAB
:1017D000912CA12CB12CA50194010E945B11E62F44
:1017E000B901CA0101501109EA3014F4E05D01C0E9
:1017F000E95CD801EC93232B242B252B61F7C8013E
:101800000E94BE0BA1960FB6F894DEBF0FBECDBFEF
:10181000DF91CF911F910F91BF90AF909F908F90CC
:101820000895CF93DF93CDB7DEB7AB970FB6F8949B
:10183000DEBF0FBECDBF789484B5826084BD84B511
:10184000816084BD85B5826085BD85B5816085BDBB
:1018500080916E00816080936E0010928100809173
:1018600081008260809381008091810081608093FB
:101870008100809180008160809380008091B10020
:1018800084608093B1008091B00081608093B0004B
:1018900080917A00846080937A0080917A008260DF
:1018A00080937A0080917A00816080937A008091A1
:1018B0007A00806880937A001092C100E091DC0188
:1018C000F091DD0182E08083E091D801F091D901AF
:1018D0001082E091DA01F091DB0180E180831092C7
:1018E000E401E091E001F091E10186E08083E09184
:1018F000DE01F091DF01808180618083E091DE0173
:10190000F091DF01808188608083E091DE01F091B9
:10191000DF01808180688083E091DE01F091DF014A
:1019200080818F7D8083389839983B983A983C988D
:10193000409A419A439A429A449A8FE291E00E94D7
:10194000BE0B83E593E00E9426106C01DC011C9223
:10195000FC01EF5FFC4F10823196118210825C0116
:10196000BBEEAB1ABCEFBB0AF501148216821186DE
:1019700013864C01FFED8F1AFCEF9F0AD40152969B
:101980001C923C01B0EC6B1ABCEF7B0AF301108295
:101990008091C3019091C401892B49F082E491E0C8
:1019A0000E9481028AE491E00E948102FFCFD092DE
:1019B000C401C092C30161E08AE00E94EF0181E0AE
:1019C0000E94750B61E08BE00E94EF0160E08CE00B
:1019D0000E94EF0161E08DE00E94EF0182E58CBD85
:1019E0001AE08FEF0E9497021150D9F780E00E9411
:1019F000750B01E012E00E94C20201501109D9F7F3
:101A00001BE020E030E0A90160E0C5010E94C702B0
:101A1000F82EF1E08F1751F0115099F781E0D501C0
:101A200014968C9314971596FC929DC12AEA31E086
:101A300040E050E068E0C5010E94C7028601005EF8
:101A40001C4F813099F40E94C2020E94C2020E947F
:101A5000C2020E94C2028A3A29F099E0F5019483F9
:101A6000858381C182E0D8018C930CC082FF03C0C2
:101A7000F801F08207C092E0D50114969C93149768
:101A800015968C930E942B027B0120E030E0A90187
:101A900067E3C5010E94C702F8018081823021F00E
:101AA00020E030E0A90104C020E030E040E050E454
:101AB00069E2C5010E94C702882361F00E942B02DF
:101AC0006E197F09613D774000F3F601E75EFC4F38
:101AD00086E011C0D8018C918230E9F420E030E03A
:101AE000A9016AE3C5010E94C702882331F0F6010B
:101AF000E75EFC4F85E0808336C10E94C202807C95
:101B0000803C19F483E0F80180830E94C2020E94A5
:101B1000C2020E94C2028CB58C7F8CBD8DB58160E3
:101B20008DBD81E00E94750B8FEF0E949702C50169
:101B30000E949C0281E0D50119968C93EEEAF1E0B7
:101B4000F9A7E8A71EA286010C5C1C4F1BA70AA7D9
:101B5000D4015496BC92AE925397BEA1BB2349F1D7
:101B600070E1E72EF12C8E010F5F1F4F28A539A5DC
:101B700040E050E0BA01C5010E941903882309F42E
:101B8000E2C089818F7709F0DEC08D859E85AF85A3
:101B9000B88984369105A105B10508F4D4C029841B
:101BA0003A844B845C84211431044104510421F4AF
:101BB000CAC0212C312C210165E2E62EF12C8E01C8
:101BC0000F5F1F4F2BE030E0B201A101EAA5FBA59A
:101BD000808191810E941903882309F4B4C089810E
:101BE0009A818115924009F0AEC06E81662309F496
:101BF000AAC08C819D81009709F4A5C00B810FA319
:101C0000002309F4A0C0202F30E0A9014150510960
:101C100024233523232B09F096C0D4011D966C9301
:101C20001D970C932C853D852115310519F040E059
:101C300050E004C02A8D3B8D4C8D5D8DF4012183D5
:101C40003283438354830F81188519A708A7168B05
:101C5000058B82017101E80EF91E011D111DE6863A
:101C6000F786008B118BA62FB0E00E947D11DC015E
:101C7000CB018E0D9F1DA01FB11F878B908FA18F51
:101C8000B28FE8A5F9A545E0EE0FFF1F4A95E1F7F1
:101C9000E150FE4FEF2FFF27E695AC01BD014E0F3F
:101CA0005F1F611D711DD40119964D935D936D9356
:101CB0007C931C9789859A85009719F0A0E0B0E085
:101CC00004C08E899F89A88DB98DF401838F948F6C
:101CD000A58FB68F92018101041B150B260B370BC4
:101CE000080F191F2A1F3B1FC901B8011FA1212F6F
:101CF00030E040E050E00E945B11D40115962D9336
:101D00003D934D935C931897253FBFE03B074105FA
:101D1000510518F48CE0F40114C0253F3F4F4105F4
:101D2000510528F480E1D40152968C9325C08AA1F4
:101D30009BA1ACA1BDA1F401878B908FA18FB28F25
:101D400080E2828B19C0FEA1FF5FFEA308A519A542
:101D5000005F1F4F19A708A7F53009F0F9CEB501AC
:101D60008FE591E007C0B50187E791E003C0B501B9
:101D70008AE491E00E947C04F601ED5CFC4F8081D6
:101D80008031E1F482E0D3018C93F301158616864D
:101D90001786108AF601EA5CFC4F80819181A0E0F1
:101DA000B0E035E0880F991FAA1FBB1F3A95D1F705
:101DB000F30181839283A383B48333C08032B9F665
:101DC00083E0D3018C93F4014789508D618D728D2E
:101DD0001D964D935D936D937C935097212C312CE0
:101DE0002101C4010E94A404AB01BC0141155105AD
:101DF0006105710579F0F401808190E0982F8827C2
:101E0000990F092E000CAA0BBB0B280E391E4A1E77
:101E10005B1EE7CFD30111962D923D924D925C92BD
:101E20001497F301928A818A85859685A785B08962
:101E300085839683A783B0871186128613861486BE
:101E400086010C5F1C4F7601B4EFEB1ABCEFFB0A66
:101E5000AA24AA94BA2C8AE190E00E942610FC01E0
:101E60001082B282A1821382168A178A108E118E76
:101E7000D8018D939D938D01EA16FB0661F7C6018B
:101E80000196F601E25FFC4F91838083F701918315
:101E900080839395F601E05FFC4F918380833296B7
:101EA0009183808381E0D6018C93529A539A549AFD
:101EB0005A9A559A5D981092800089E0809381002B
:101EC00080ED97E0909389008093880081E090E016
:101ED00090938B0080938A00D092CB01C092CA016C
:101EE00089E691E00E94BE0B88E191E00E94BE0B62
:101EF00001E0309903C01092C90108C08091C90166
:101F0000811104C00093C90111E001C010E03199B2
:101F100003C01092C80107C08091C801811103C09D
:101F20000093C8011260339903C01092C70107C023
:101F30008091C701811103C00093C70114603299D9
:101F400003C01092C60107C08091C601811103C071
:101F50000093C6011860349903C01092C50107C0F0
:101F60008091C501811103C00093C5011061C12C8E
:101F7000D12C760110FF2EC08EE691E00E94BE0BA0
:101F80004AE0C701B6010E94D00B88E191E00E94AF
:101F9000BE0B96018091CA019091CB01C114D1046E
:101FA00019F46DE771E014C02130310519F469E8C6
:101FB00071E00EC02230310519F465E971E008C006
:101FC0002330310519F461EA71E002C06DEA71E075
:101FD0000E948C091695BFEFCB1ADB0AEB0AFB0AAD
:101FE000E5E0CE16D104E104F10421F60E9454018B
:101FF00080CFECECF1E01382128288EE93E0A0E057
:10200000B0E084839583A683B7838AE091E09183CF
:10201000808385EC90E09587848784EC90E09787B7
:10202000868780EC90E0918B808B81EC90E0938BA5
:10203000828B82EC90E0958B848B86EC90E0978B82
:10204000868B118E128E138E148E08950F931F930C
:10205000CF93DF938230910510F482E090E0E0911D
:102060006B02F0916C0220E030E0A0E0B0E030972D
:1020700019F1408151810281138148175907C8F035
:102080008417950769F4109731F012960C93129704
:1020900013961C9327C000936B0210936C0222C00E
:1020A0002115310519F04217530718F49A01BD01A3
:1020B000EF01DF01F801DBCF21153105F9F0281B15
:1020C000390B2430310580F48A819B8161157105BB
:1020D00021F0FB019383828304C090936C02809370
:1020E0006B02FE01329644C0FE01E20FF31F8193A2
:1020F000919322503109398328833AC02091690293
:1021000030916A02232B41F42091020130910301A6
:1021100030936A02209369022091000130910101FD
:102120002115310541F42DB73EB74091040150917E
:102130000501241B350BE0916902F0916A02E21758
:10214000F307A0F42E1B3F0B2817390778F0AC01DA
:102150004E5F5F4F2417350748F04E0F5F1F5093B7
:102160006A02409369028193919302C0E0E0F0E03B
:10217000CF01DF91CF911F910F910895CF93DF93FE
:10218000009709F481C0FC01329713821282A0915A
:102190006B02B0916C02109781F420813181820F23
:1021A000931F2091690230916A022817390751F56F
:1021B000F0936A02E093690267C0ED0120E030E02D
:1021C000CE17DF0740F44A815B819E01411551051E
:1021D000F1F0EA01F5CFD383C28340815181840FAE
:1021E000951FC817D90759F488819981840F951FC5
:1021F0000296918380838A819B81938382832115B8
:10220000310529F4F0936C02E0936B023DC0E901C3
:10221000FB83EA8349915991C40FD51FEC17FD0741
:1022200061F480819181840F951F0296E901998361
:102230008883828193819B838A83E0E0F0E0129619
:102240008D919C911397009719F0FD01DC01F7CF58
:102250008D919C9111979D012E5F3F4F820F931F8F
:102260002091690230916A022817390769F4309782
:1022700029F410926C0210926B0202C01382128237
:10228000B0936A02A0936902DF91CF91089597FB02
:10229000072E16F4009407D077FD09D00E9488110C
:1022A00007FC05D03EF4909581959F4F0895709559
:1022B00061957F4F0895A1E21A2EAA1BBB1BFD0159
:1022C0000DC0AA1FBB1FEE1FFF1FA217B307E40715
:1022D000F50720F0A21BB30BE40BF50B661F771F6D
:1022E000881F991F1A9469F760957095809590954D
:1022F0009B01AC01BD01CF0108950E94A211A59FD1
:10230000900DB49F900DA49F800D911D11240895F0
:10231000AA1BBB1B51E107C0AA1FBB1FA617B7070B
:1023200010F0A61BB70B881F991F5A95A9F7809527
:102330009095BC01CD010895EE0FFF1F0590F4911B
:10234000E02D0994A29FB001B39FC001A39F700D1F
:10235000811D1124911DB29F700D811D1124911DAD
:10236000089581E090E0F8940C94C411FB01DC0125
:102370004150504030F08D910190801919F40020A7
:0C238000B9F7881B990B0895F894FFCF63
:10238C0000006D028000000000008001E70A1701C8
:10239C00CD01480126013A010D0A00646174610007
:1023AC0052494646005741564500666D7420004917
:1023BC006E697469616C697A696E67206E657720E5
:1023CC00706C617965722E2E2E00546865726520D2
:1023DC0063616E206F6E6C79206265206F6E652074
:1023EC00706C61796572212100446F6E6500506CD0
:1023FC006179696E67206E6F74653A2000534E41A7
:10240C00524544524D57415600484947485F484150
:10241C005457415600435241534853594D57415616
:10242C00004B49434B4452554D57415600544F4D68
:0A243C005F4452554D574156000011
:00000001FF
