:100000000C94E9000C9411010C9411010C94110151
:100010000C9411010C9411010C9411010C94110118
:100020000C9411010C9411010C9411010C944804CE
:100030000C94DD070C9411010C9411010C94110126
:100040000C94C5020C9411010C944B020C942502E3
:100050000C9411010C9411010C9411010C941101D8
:100060000C9411010C9411012C20000D0A53442012
:10007000492F4F206572726F723A20004572726F7D
:10008000723A200046696C6527732053616D706C6D
:1000900065205261746520446F6573204E6F742033
:1000A0004D617463682053657474696E67732100D1
:1000B00046696C65277320426974204465707468D2
:1000C00020446F6573204E6F74204D617463682007
:1000D00053657474696E6773210046696C65277394
:1000E000204368616E6E656C20436F756E742044AA
:1000F0006F6573204E6F74204D6174636820536583
:100100007474696E67732100466F756E642046696A
:100110006C6500436F756C64206E6F742066696E49
:10012000642066696C650066696C652E6F70656E2B
:10013000206661696C6564000000000024002700EF
:100140002A004572726F723A200043616E27742054
:100150006F70656E20726F6F742064697221004E3B
:100160006F2076616C69642046415420706172741E
:100170006974696F6E21004361726420696E6974ED
:100180002E206661696C6564210000000000250076
:1001900028002B00040404040404040402020202E4
:1001A000020203030303030301020408102040803A
:1001B00001020408102001020408102000000008B9
:1001C000000201000003040700000000000000001E
:1001D000110C11241FBECFEFD8E0DEBFCDBF12E05F
:1001E000A0E0B1E0E6E4F6E202C005900D92A83A84
:1001F000B107D9F723E0A8EAB2E001C01D92A0360A
:10020000B207E1F710E0C9EED0E004C02197FE018B
:100210000E94F912C83ED107C9F70E943E0C0C9407
:1002200021130C940000CF92DF92EF92FF920F9374
:100230001F93CF93DF936C017A018B01C0E0D0E074
:10024000CE15DF0581F0D8016D918D01D601ED91BC
:10025000FC910190F081E02DC6010995892B11F0E8
:100260002196EECF7E01C701DF91CF911F910F91B3
:10027000FF90EF90DF90CF900895089580E090E098
:100280000895FC01538D448D252F30E0842F90E09C
:10029000821B930B541710F0CF9608950197089581
:1002A000FC01918D828D981761F0828DDF01A80F7E
:1002B000B11D5D968C91928D9F5F9F73928F90E0A0
:1002C00008958FEF9FEF0895FC01918D828D98170F
:1002D00031F0828DE80FF11D858D90E008958FEF4C
:1002E0009FEF0895FC01918D228D892F90E0805C15
:1002F0009F4F821B91098F73992708958FEB92E08E
:100300000E94720121E0892B09F420E0822F0895D8
:10031000FC01848DDF01A80FB11DA35ABF4F2C91A2
:10032000848D90E001968F739927848FA689B78971
:100330002C93A089B1898C91837080648C93938D68
:10034000848D981306C00288F389E02D80818F7D0B
:1003500080830895EF92FF920F931F93CF93DF93C3
:10036000EC0181E0888F9B8D8C8D981305C0E88906
:10037000F989808185FD26C0F62E0B8D10E00F5F78
:100380001F4F0F731127E02E8C8DE8120CC00FB693
:1003900007FCFACFE889F989808185FFF5CFCE0186
:1003A0000E948801F1CF8B8DFE01E80FF11DE35A09
:1003B000FF4FF0829FB7F8940B8FEA89FB89808109
:1003C00080620AC09FB7F894EE89FF896083E8894C
:1003D000F98980818370806480839FBF81E090E091
:1003E000DF91CF911F910F91FF90EF900895CF93E0
:1003F000DF93EC01888D8823C9F0EA89FB8980812D
:1004000085FD05C0A889B9898C9186FD0FC00FB6FE
:1004100007FCF5CF808185FFF2CFA889B9898C913F
:1004200085FFEDCFCE010E948801E7CFDF91CF910C
:10043000089580E090E0892B29F00E947E018111CF
:100440000C94000008950E940E131F920F920FB695
:100450000F9211242F933F934F935F936F937F934A
:100460008F939F93AF93BF93EF93FF938FEB92E0A4
:100470000E948801FF91EF91BF91AF919F918F9161
:100480007F916F915F914F913F912F910F900FBE90
:100490000F901F9018951F920F920FB60F92112474
:1004A0002F938F939F93EF93FF93E091CF02F0915F
:1004B000D0028081E091D502F091D60282FD12C077
:1004C00090818091D8028F5F8F732091D90282171B
:1004D00051F0E091D802F0E0E154FD4F958F809308
:1004E000D80201C08081FF91EF919F918F912F9150
:1004F0000F900FBE0F901F901895CF93DF9390E051
:10050000FC01E855FE4F2491FC01EC56FE4F84910E
:10051000882361F190E0880F991FFC01E85CFE4F91
:10052000C591D491FC01E657FE4FA591B49161119C
:1005300009C09FB7F8948881209582238883EC9125
:100540002E230BC0623061F49FB7F8948881322F5C
:10055000309583238883EC912E2B2C939FBF06C06C
:100560008FB7F894E8812E2B28838FBFDF91CF912E
:1005700008952FB7F8946091AD027091AE0280910A
:10058000AF029091B0022FBF08951F920F920FB645
:100590000F9211242F933F938F939F93AF93BF9309
:1005A0008091AD029091AE02A091AF02B091B002E5
:1005B0003091AC0223E0230F2D3720F40196A11DCA
:1005C000B11D05C026E8230F0296A11DB11D209381
:1005D000AC028093AD029093AE02A093AF02B093B1
:1005E000B0028091A8029091A902A091AA02B091B4
:1005F000AB020196A11DB11D8093A8029093A902A0
:10060000A093AA02B093AB02BF91AF919F918F913B
:100610003F912F910F900FBE0F901F901895CF9381
:10062000DF93EC01FE016491662331F08FEB92E0E1
:100630000E94AA012196F6CFDF91CF9108950E94E2
:100640000F0383E291E00C94750B8EBD0DB407FE91
:10065000FDCF0895CF93DF93FC0186818823E9F0D5
:100660008FEF8EBD2FEF87819085AC014F5F5F4F7D
:10067000508747838130924028F40DB407FEFDCFA8
:100680002EBDF1CF0DB407FEFDCFEF0181E00E943A
:10069000C80B8FEF0E9425031E82DF91CF91089532
:1006A0008FEF0E9425038EB50895CF92DF92EF92CF
:1006B000FF921F93CF93DF93162F69017A010E9457
:1006C0002A0380E00E94C80B0E94B902EB010E943D
:1006D00050038F3F39F4812F80640E942503C8E1C5
:1006E000D0E008C00E94B9026C1B7D0B6D327140D6
:1006F00070F3F1CFD701C6010C2E04C0B695A795B3
:10070000979587950A94D2F70E9425032897C83FAA
:100710008FEFD80779F7112321F0183021F487E8FB
:1007200003C085E901C08FEF0E942503C0E00E944D
:10073000500387FF04C0CF3F11F0CF5FF8CFDF91A8
:10074000CF911F91FF90EF90DF90CF9008958F92FF
:100750009F92AF92BF92CF92DF92EF92FF920F9350
:100760001F93CF93DF93EC01590168018E81882399
:1007700071F088819981AA81BB8184179507A607AA
:10078000B70729F48F81988528173907B0F5488372
:1007900059836A837B838B85833039F089E0440FEA
:1007A000551F661F771F8A95D1F79A01AB0161E14A
:1007B000CE010E945503182F882321F083E08C83FB
:1007C00010E058C00E94B9024B010E9450038F3FB5
:1007D00051F40E94B902681979096D327140A8F389
:1007E0008DE08C8347C08E3F21F090E19C838D8308
:1007F00041C018861F8281E08E838FEF8EBD2FEF60
:100800008F8198858A159B0550F40DB407FEFDCFA6
:100810002EBD8F819885019698878F83F1CF8701B0
:1008200001501109F6018FEF9F012C193D09201786
:10083000310738F40DB407FEFDCF9EB591938EBD00
:10084000F3CF0DB407FEFDCF8EB5F601E00FF11F1B
:1008500080838F819885E80EF91EF886EF8289855E
:10086000882321F0E11482E0F80618F0CE010E94FE
:100870002A0311E0812FDF91CF911F910F91FF90FB
:10088000EF90DF90CF90BF90AF909F908F900895A2
:100890001F920F920FB60F9211242F933F934F93F5
:1008A0005F936F937F938F939F93AF93BF93CF93F8
:1008B000DF93EF93FF93E091B102F091B202309792
:1008C00009F495C0DF01AE5FBC4F8D919C911197EB
:1008D000181619060CF08BC01C96CF01845F9C4F34
:1008E0004D915C911197EC01288139814217530792
:1008F00040F12081213009F07AC0BF01605F7C4F58
:10090000EB012881398111963C932E93AF014E5E05
:100910005C4FEA0148815981EC01598348838B502F
:1009200093402817390719F4CF018F5F9E4FEB01D1
:100930009983888382E0808380916F0084608093B4
:100940006F00ED91FC9111978191ED93FC935A9872
:100950005C985B9A5B985B9A5B985C9A5B9A5B98F5
:100960005B9A5B9887FF02C05C9A01C05C985B9AB7
:100970005B9886FF02C05C9A01C05C985B9A5B98AA
:1009800085FF02C05C9A01C05C985B9A5B9884FF0B
:1009900002C05C9A01C05C985B9A5B9883FF02C0BE
:1009A0005C9A01C05C985B9A5B9882FF02C05C9A7B
:1009B00001C05C985B9A5B9881FF02C05C9A01C0A1
:1009C0005C985B9A5B9880FF02C05C9A01C05C985F
:1009D0005B9A5B985C985B9A5B985C985B9A5B9877
:1009E0005C985B9A5B985C985B9A5B985A9AFF91CB
:1009F000EF91DF91CF91BF91AF919F918F917F91B7
:100A00006F915F914F913F912F910F900FBE0F907B
:100A10001F9018958C01EB018CE790E00E940F036A
:100A2000C8010E940F038C818823D9F08BE690E0E7
:100A30000E940F036C8170E080E090E040E10E9432
:100A4000870B88E690E00E940F036D8170E080E0E4
:100A500090E040E10E94870B83E291E00E94750BD9
:100A6000FFCFFFCFEF92FF920F931F93CF93DF93B0
:100A700000D000D0CDB7DEB7423051056105710519
:100A8000E8F0FC0105811681278130850E5F1F4F3C
:100A90002F4F3F4F401751076207730778F4FC014F
:100AA0008289803279F59A01220F331F220F331F7A
:100AB0003170C90104968130924020F060E070E00E
:100AC000CB0143C0B7E07695679557954795BA95A2
:100AD000D1F786859785A089B189480F591F6A1F6C
:100AE0007B1F14E0E12EF12C8E010F5F1F4F8389D5
:100AF00094890E94A703882309F369817A818B81F5
:100B00009C8123C08031D1F69A01220F331F3170AE
:100B1000452F562F672F772786859785A089B1891E
:100B2000480F591F6A1F7B1FA2E0EA2EF12C8E018D
:100B30000F5F1F4F838994890E94A703882309F4BC
:100B4000BDCF69817A8180E090E00F900F900F9087
:100B50000F90DF91CF911F910F91FF90EF9008952B
:100B60004F925F926F927F928F929F92AF92BF92BD
:100B7000CF92DF92EF92FF92CF93DF9300D000D01D
:100B800000D0CDB7DEB79E838D83DC011996CD9062
:100B9000DD90ED90FC901C9746015701840E951E48
:100BA000A61EB71E11968D919D910D90BC91A02D02
:100BB00088159905AA05BB0510F480E06FC0AD81CA
:100BC000BE815196ED91FC9152974080512C612C41
:100BD000712CC501B40129E09695879577956795A5
:100BE0002A95D1F7A30192010E94B81229833A8372
:100BF0004B835C83C701B60139E09695879577955D
:100C000067953A95D1F7A30192010E94B812C98065
:100C1000DA80EB80FC80C21AD30AE40AF50AED817F
:100C2000FE8181869286A386B4868081982F9770F4
:100C3000923081F083FF2CC0ED81FE818581968109
:100C4000A781B085C80ED91EEA1EFB1EC582D682BA
:100C5000E782F08681E022C0ED81FE8145815681E8
:100C600067817085818992890E943205AD81BE813C
:100C700015966D937D938D939C931897B1E0CB1A45
:100C8000D108E108F108672B682B692B09F495CF8F
:100C9000C114D104E104F104F9F6DCCF26960FB6B5
:100CA000F894DEBF0FBECDBFDF91CF91FF90EF90E4
:100CB000DF90CF90BF90AF909F908F907F906F907C
:100CC0005F904F9008952F923F924F925F926F9254
:100CD0007F928F929F92AF92BF92CF92DF92EF92CC
:100CE000FF920F931F93CF93DF9300D000D01F92FA
:100CF000CDB7DEB76C013B015A834983A12CB12CDF
:100D000029803A80A214B30408F099C0D60119963C
:100D10000D911D912D913C911C974801B1E09B22B2
:100D200080E092E0881999092A183B083C822B82BE
:100D30008215930510F49C838B83F60141815281C7
:100D4000638174812B803C80C101A0E0B0E01A0176
:100D50002B01201A310A420A530A281639064A067C
:100D60005B0628F42A01401A510A5C824B82D601A4
:100D70008C9187705196ED91FC9152977801890181
:100D800099E016950795F794E7949A95D1F78230F4
:100D900049F44789508D618D728D4E0D5F1D601F26
:100DA000711F2BC020802D82D60115962D913D916B
:100DB0004D915C9118972250310941095109A22D9A
:100DC000B0E00E94DA1221853285438554851B01EB
:100DD0002C01220E331E441E551EB201A101CD016D
:100DE0000197092E000CAA0BBB0B8E219F21A0237B
:100DF000B123480F591F6A1F7B1F4B805C80452819
:100E000031F42B803C8012141304DCF014C02B81CD
:100E10003C81280D391D2130324050F4EB80FC809C
:100E200083019401838994890E94A7038111E9CFEA
:100E30008FEF9FEF18C04B805C8057FCF9CFC50146
:100E400012C02B803C80A101330C660B770BC601CE
:100E50000E94B005882361F32B803C80620C731CD8
:100E6000A20CB31C4DCF0F900F900F900F900F90CE
:100E7000DF91CF911F910F91FF90EF90DF90CF9076
:100E8000BF90AF909F908F907F906F905F904F90AA
:100E90003F902F900895AF92BF92CF92DF92EF9242
:100EA000FF920F931F93CF93DF93CDB7DEB72897B1
:100EB0000FB6F894DEBF0FBECDBF5B018A0179018A
:100EC000F90186899789A08DB18D2D5F3F4F69010A
:100ED000892B8A2B8B2B39F548E050E0BE016F5FE0
:100EE0007F4FC6010E946306089719F08FEF9FEFAE
:100EF00053C044E050E066E271E0CE0101960E94EA
:100F000013134D815E816F817885892B31F4F70150
:100F1000468B578B608F718F06C0C6010E94B0054B
:100F20008111DACFE3CF980140E050E0F70164850A
:100F30007585868597850E94B812C801861B970B18
:100F4000A8018017910708F4AC01F70186899789F9
:100F5000A08DB18D8A0120E030E080179107A207B3
:100F6000B30708F4AC01B501C6010E946306181668
:100F7000190694F48C01092E000C220B330BF70197
:100F800046895789608D718D401B510B620B730B25
:100F9000468B578B608F718F28960FB6F894DEBF03
:100FA0000FBECDBFDF91CF911F910F91FF90EF90BA
:100FB000DF90CF90BF90AF9008951F920F920FB621
:100FC0000F9211242F923F924F925F926F927F92D5
:100FD0008F929F92AF92BF92CF92DF92EF92FF9249
:100FE0000F931F932F933F934F935F936F937F9331
:100FF0008F939F93AF93BF93EF93FF93CF93DF9321
:1010000000D000D0CDB7DEB780916F008B7F80938A
:101010006F008091B1029091B2029C838B83DC01BE
:101020008C91823009F0CFC0AE5EBC4FBA83A983E9
:10103000EB80FC80B0EFEB1ABCEFFB0AF70180817C
:101040009181A981BA818D939C932B803C80BCEFC8
:101050002B1A3B0A4B805C80E4EF4E1AECEF5E0AE1
:101060008101BB24B3946B807C80FFEF6F1AFDEF8E
:101070007F0ACB80DC808EEFC81A8CEFD80AD801AB
:10108000ED91FC918081882309F492C07894F80155
:101090002081318140E051E0B3018B819C810E942D
:1010A0004B079C01181619060CF055C0A981BA818E
:1010B0008D919C911197AC01421B530BF7016081FC
:1010C00071814617570720F4820F931F8D939C93CD
:1010D000BB2039F15301E0E0F0E0E11581E0F807D1
:1010E00011F4B12C65C0D701E217F3077CF48D90A1
:1010F0009C908E0E9F1ED5018C9190E0D6016D9133
:101100007C910E94A412D4016C9306C08D919C9195
:10111000DC01AE0FBF1F1C923196BFEFAB1ABB0AAA
:10112000DCCF4301E0E0F0E0D701AD90BC90AE0E23
:10113000BF1ED4018D914D0190E0D6016D917C913F
:101140000E94A412D5018C91680F6C9331962E17D2
:101150003F0751F7C6CFD801ED91FC91119710824E
:1011600013826D917C91FB0141815281D1012D91BE
:101170003D91F90181819281481759071CF401972B
:1011800092838183A415B50591F7EFEFFFEFDB01A3
:101190001296FC93EE931197D6018D919C91119725
:1011A00001978D939C93FB01168A178A108E118EDE
:1011B0000E5F1F4F0415150509F061CF81E0AB816B
:1011C000BC818C93F8940F900F900F900F90DF914B
:1011D000CF91FF91EF91BF91AF919F918F917F91AF
:1011E0006F915F914F913F912F911F910F91FF90C0
:1011F000EF90DF90CF90BF90AF909F908F907F90B7
:101200006F905F904F903F902F900F900FBE0F9078
:101210001F9018952F923F924F925F926F927F92FC
:101220008F929F92AF92BF92CF92DF92EF92FF92F6
:101230000F931F93CF93DF93CDB7DEB7C654D10979
:101240000FB6F894DEBF0FBECDBF8C016B01E096E8
:10125000EEACFFACE097E1962FACE197E2963FACA5
:10126000E2976C968FAD6C978770823008F4BFC0A0
:1012700040E250E0BE016F5F7F4FCE01855A9F4F25
:101280000E946306803209F0B2C08981882309F484
:10129000AEC0853E69F38E3259F38C8583FDE8CF6D
:1012A0008871782E20E1821749F04BE050E0B601BA
:1012B000CE0101960E941313892B99F6F7018289BA
:1012C000803108F497C08D889E88A12CB12CD40160
:1012D000992788278B8C9C8CA12CB12C882A992A41
:1012E000AA2ABB2A71101AC04D8C5E8C6F8C78A014
:1012F00081E0F80180834182528263827482858218
:101300009682A782B08611861286138614868586F9
:101310009686A786B08AF28AE18A71C0F0E17F12D0
:1013200069C0B501A401412C512C3201C7010E94B2
:101330003205AB01BC01411551056105710579F01C
:10134000F701808190E0982F8827990F092E000CD3
:10135000AA0BBB0B480E591E6A1E7B1EE7CFF4E09A
:10136000FCAB4DAA5EAA6FAA78AE89AE9AAEABAEC0
:10137000BCAE21961CAE1DAE1EAE1FAE21972596AB
:101380008CAE9DAEAEAEBFAE25972796FFAEEEAE4D
:1013900027973F922F92FF92EF922DB73EB723519E
:1013A00031090FB6F8943EBF0FBE2DBFADB7BEB723
:1013B000119683E1FE01F49601900D928A95E1F772
:1013C000B601CE0181960E940A0989A187700FB6E5
:1013D000F894DEBF0FBECDBF09F443CF83E1FE0119
:1013E000B196D80101900D928A95E1F708C0F801F5
:1013F000108205C0B10187E291E00E940A05C80190
:10140000CA5BDF4F0FB6F894DEBF0FBECDBFDF91D2
:10141000CF911F910F91FF90EF90DF90CF90BF90F1
:10142000AF909F908F907F906F905F904F903F9084
:101430002F900895CF92DF92EF92FF920F931F9318
:10144000CF93DF93CDB7DEB7A5970FB6F894DEBF85
:101450000FBECDBF8C01F8948B5E9C4F9F938F93F2
:101460000C969F938F93F801E05CFC4F2DB73EB72D
:10147000235131090FB6F8943EBF0FBE2DBFADB753
:10148000BEB7119683E101900D928A95E1F7CE01E6
:1014900001960E940A09898187700FB6F894DEBF11
:1014A0000FBECDBF19F483E191E054C088E091E014
:1014B0000E941F034CE050E0BE016C5E7F4FCE01E6
:1014C00001960E9463060C9709F046C044E050E084
:1014D0006BE271E0CE0144960E941313892BE1F573
:1014E00044E050E060E371E0CE014C960E9413139B
:1014F000892B91F548E050E0BE016C5E7F4FCE0134
:1015000001960E946306089739F544E050E065E3D0
:1015100071E0CE0144960E941313892BE9F4C88C24
:10152000D98CEA8CFB8CC6018D7F409769F4A601AB
:10153000BE016C5E7F4FCE0101960E9463068C1542
:101540009D0551F41D8A1C8A8E899F89019739F067
:101550008AED90E00E941F037894F12CB6C08AA116
:101560009BA1089719F080EB90E0F4CF888D998DBE
:10157000AA8DBB8D80349F41A105B10519F084E887
:1015800090E0E8CF7894F801EC5FFC4FAF0180E089
:1015900090E020E030E0DA01CD90DD90AD01D601A1
:1015A000FC90F11043C0F894880F991F800F911F91
:1015B0008C5F9C4FFC01A081B18121E02C93F8014C
:1015C000EE5FFC4F2081318112963C932E93119750
:1015D0002F5F3F4F3183208323E1FE013196139625
:1015E00001900D922A95E1F7DC01ED91FC91168AAC
:1015F000178A108E118E7894FC012081318140E091
:1016000050E060E070E0C8010E944B0797FD5DC0AC
:10161000F801EF5FFC4FF080F11057C080916F0030
:10162000826080936F00FF24F3944FC0D60111961F
:101630006D917C911297672B09F496010196843085
:10164000910509F0A8CFA801445F5C4FA191B19129
:1016500011968D919C911297181619062CF40197EA
:1016600012969C938E9311974E175F0779F7F89413
:1016700083E090E0F9019283818383E1FE0131965A
:10168000D901139601900D928A95E1F7D9015696EA
:101690001D921D921D921C9259977894F801EF5F4C
:1016A000FC4F8081811105C080916F008260809322
:1016B0006F0040E050E060E070E0C8010E944B071E
:1016C0009095F92EFF1CFF24FF1C8F2DA5960FB6B9
:1016D000F894DEBF0FBECDBFDF91CF911F910F9168
:1016E000FF90EF90DF90CF900895009769F0FC0194
:1016F00001900020E9F73197AF01481B590BBC015D
:101700008FEB92E00C94130180E090E008958F92AB
:101710009F92AF92BF920F931F93CF93DF93CDB75A
:10172000DEB7A1970FB6F894DEBF0FBECDBF19A2EA
:10173000423008F44AE08E010F5D1F4F842E912C39
:10174000A12CB12CA50194010E94B812E62FB90179
:10175000CA0101501109EA3014F4E05D01C0E95CEE
:10176000D801EC93232B242B252B61F7C8010E9471
:10177000750BA1960FB6F894DEBF0FBECDBFDF91FB
:10178000CF911F910F91BF90AF909F908F90089530
:10179000E6ECF1E09491E2EBF1E02491EEE9F1E086
:1017A000E491EE2309F43CC0992339F1933091F090
:1017B00038F49130A9F0923001F594B59F7D12C0B4
:1017C000973091F09830A1F09430B9F49091800066
:1017D0009F7D03C0909180009F77909380000DC003
:1017E00094B59F7794BD09C09091B0009F7703C0D6
:1017F0009091B0009F7D9093B000F0E0EE0FFF1F3E
:10180000E657FE4FA591B4919FB7F894811104C09B
:101810008C912095282302C0EC912E2B2C939FBFF6
:101820000895EFEBF2E01382128288EE93E0A0E0DD
:10183000B0E084839583A683B78385E191E09183AB
:10184000808385EC90E09587848784EC90E097878F
:10185000868780EC90E0918B808B81EC90E0938B7D
:10186000828B82EC90E0958B848B86EC90E0978B5A
:10187000868B118E128E138E148E0895CF93DF9364
:10188000CDB7DEB7AB970FB6F894DEBF0FBECDBFB6
:10189000789484B5826084BD84B5816084BD85B54B
:1018A000826085BD85B5816085BD80916E00816057
:1018B00080936E00109281008091810082608093FD
:1018C00081008091810081608093810080918000FF
:1018D0008160809380008091B10084608093B1002A
:1018E0008091B00081608093B00080917A00846024
:1018F00080937A0080917A00826080937A00809150
:101900007A00816080937A0080917A008068809369
:101910007A001092C100E091CF02F091D00282E0F3
:101920008083E091CB02F091CC021082E091CD0255
:10193000F091CE0280E180831092D702E091D30231
:10194000F091D40286E08083E091D102F091D2023E
:10195000808180618083E091D102F091D202808108
:1019600088608083E091D102F091D202808180680A
:101970008083E091D102F091D20280818F7D8083BB
:10198000389839983A983B983C983D9820982198F7
:1019900056985798409A419A429A439A449A459A3F
:1019A000289A299A5E9A5F9A2398249825982B9AC8
:1019B0002C9A2D9A8AE391E00E94750B83E593E0BF
:1019C0000E9483116C01DC011C92FC01EF5FFC4F53
:1019D00010823196118210825C01BBEEAB1ABCEF13
:1019E000BB0AF50114821682118613864C01FFEDA5
:1019F0008F1AFCEF9F0AD40152961C923C01B0EC66
:101A00006B1ABCEF7B0AF30110828091B1029091B6
:101A1000B202892B49F082E491E00E940F0385E530
:101A200091E00E940F03FFCFD092B202C092B102A8
:101A300061E08AE00E947D0281E00E94C80B61E0C3
:101A40008BE00E947D0260E08CE00E947D0261E0FC
:101A50008DE00E947D0282E58CBD1AE08FEF0E942E
:101A600025031150D9F780E00E94C80B01E012E075
:101A70000E94500301501109D9F71BE020E030E02B
:101A8000A90160E0C5010E945503F82EF1E08F170F
:101A900051F0115099F781E0D50114968C93149769
:101AA0001596FC929DC12AEA31E040E050E068E0E2
:101AB000C5010E9455038601005E1C4F813099F4D8
:101AC0000E9450030E9450030E9450030E94500342
:101AD0008A3A29F099E0F5019483858381C182E0F7
:101AE000D8018C930CC082FF03C0F801F08207C0BC
:101AF00092E0D50114969C93149715968C930E94AE
:101B0000B9027B0120E030E0A90167E3C5010E9432
:101B10005503F8018081823021F020E030E0A901F6
:101B200004C020E030E040E050E469E2C5010E94DA
:101B30005503882361F00E94B9026E197F09613D47
:101B4000774000F3F601E75EFC4F86E011C0D80154
:101B50008C918230E9F420E030E0A9016AE3C5010C
:101B60000E945503882331F0F601E75EFC4F85E0C3
:101B7000808336C10E945003807C803C19F483E04E
:101B8000F80180830E9450030E9450030E9450037A
:101B90008CB58C7F8CBD8DB581608DBD81E00E9440
:101BA000C80B8FEF0E942503C5010E942A0381E024
:101BB000D50119968C93EEEAF1E0F9A7E8A71EA2E9
:101BC00086010C5C1C4F1BA70AA7D4015496BC923B
:101BD000AE925397BEA1BB2349F190E1E92EF12CBF
:101BE0008E010F5F1F4F28A539A540E050E0BA01D4
:101BF000C5010E94A703882309F4E2C089818F7779
:101C000009F0DEC08D859E85AF85B8898436910543
:101C1000A105B10508F4D4C029843A844B845C84BE
:101C2000211431044104510421F4CAC0212C312C67
:101C3000210185E2E82EF12C8E010F5F1F4F2BE072
:101C400030E0B201A101EAA5FBA5808191810E944B
:101C5000A703882309F4B4C089819A818115924031
:101C600009F0AEC06E81662309F4AAC08C819D8103
:101C7000009709F4A5C00B810FA3002309F4A0C0AD
:101C8000202F30E0A9014150510924233523232B73
:101C900009F096C0D4011D966C931D970C932C856A
:101CA0003D852115310519F040E050E004C02A8D32
:101CB0003B8D4C8D5D8DF4012183328343835483AE
:101CC0000F81188519A708A7168B058B8201710152
:101CD000E80EF91E011D111DE686F786008B118B9B
:101CE000A62FB0E00E94DA12DC01CB018E0D9F1D01
:101CF000A01FB11F878B908FA18FB28FE8A5F9A588
:101D000015E0EE0FFF1F1A95E1F7E150FE4FEF2FA0
:101D1000FF27E695AC01BD014E0F5F1F611D711DD0
:101D2000D40119964D935D936D937C931C9789858F
:101D30009A85009719F0A0E0B0E004C08E899F89D1
:101D4000A88DB98DF401838F948FA58FB68F9201E2
:101D50008101041B150B260B370B080F191F2A1FB7
:101D60003B1FC901B8011FA1212F30E040E050E026
:101D70000E94B812D40115962D933D934D935C9318
:101D80001897253FBFE03B074105510518F48CE04B
:101D9000F40114C0253F3F4F4105510528F480E16F
:101DA000D40152968C9325C08AA19BA1ACA1BDA160
:101DB000F401878B908FA18FB28F80E2828B19C044
:101DC000FEA1FF5FFEA308A519A5005F1F4F19A77D
:101DD00008A7F53009F0F9CEB5018FE591E007C00D
:101DE000B50187E791E003C0B5018AE491E00E9464
:101DF0000A05F601ED5CFC4F80818031E1F482E060
:101E0000D3018C93F301158616861786108AF60186
:101E1000EA5CFC4F80819181A0E0B0E0F5E0880FA2
:101E2000991FAA1FBB1FFA95D1F7F30181839283F3
:101E3000A383B48333C08032B9F683E0D3018C939B
:101E4000F4014789508D618D728D1D964D935D9380
:101E50006D937C935097212C312C2101C4010E9459
:101E60003205AB01BC01411551056105710579F0E1
:101E7000F401808190E0982F8827990F092E000C9B
:101E8000AA0BBB0B280E391E4A1E5B1EE7CFD301DF
:101E900011962D923D924D925C921497F301928A85
:101EA000818A85859685A785B08985839683A78352
:101EB000B087118612861386148686010C5F1C4F2C
:101EC0007601B4EFEB1ABCEFFB0AAA24AA94BA2C51
:101ED0008AE190E00E948311FC011082B282A1820B
:101EE0001382168A178A108E118ED8018D939D93B6
:101EF0008D01EA16FB0661F7C6010196F601E25F65
:101F0000FC4F91838083F701918380839395F60141
:101F1000E05FFC4F9183808332969183808381E0E0
:101F2000D6018C93529A539A549A5A9A559A5D981C
:101F30001092800089E08093810080ED97E090937B
:101F400089008093880081E090E090938B008093DB
:101F50008A00D092BE02C092BD0284E791E00E9446
:101F6000750B83E291E00E94750BDD24D39434E677
:101F7000832E912C1B9903C01092030120C08091E5
:101F8000030181111CC0D0920301809100018823BC
:101F900029F010920001D092010111C0809101013D
:101FA000882329F010920101D092020108C080918B
:101FB0000201882321F0D0920001109202011C99A5
:101FC00003C01092060113C08091060181110FC059
:101FD000D092060180910401882329F01092040117
:101FE000D092050104C0809101018111F7CF1D99A4
:101FF00003C010920A0120C080910A0181111CC007
:10200000D0920A0180910701882329F010920701DC
:10201000D092080111C080910801882329F0109204
:102020000801D092090108C080910901882321F09C
:1020300010920901D0920701309903C01092BC029E
:102040000AC08091BC02811106C0D092BC02EE246D
:10205000E394F12C02C0E12CF12C319903C01092D1
:10206000BB0208C08091BB02811104C0D092BB02A8
:102070006894E1F8329903C01092BA0208C08091C6
:10208000BA02811104C0D092BA026894E2F833997E
:1020900003C01092B90208C08091B902811104C036
:1020A000D092B9026894E3F8349903C01092B80250
:1020B00008C08091B802811104C0D092B80268941F
:1020C000E4F8359903C01092B70208C08091B702B6
:1020D000811104C0D092B7026894E5F8189903C042
:1020E0001092B60208C08091B602811104C0D0924D
:1020F000B6026894E6F8199903C01092B50208C0B8
:102100008091B502811104C0D092B5026894E7F8BD
:102110004E9903C01092B40208C08091B40281119C
:1021200004C0D092B4026894F2F84F9903C01092A0
:10213000B30208C08091B302811104C0D092B302EF
:102140006894F3F890E4A92E92E0B92EE0FECDC099
:102150008501005B1109C801B4010E94A4128831F5
:10216000910514F0850105C00C971CF085010855F8
:10217000110989E791E00E94750B4AE0B801012E30
:10218000000C880B990B0E94870B83E291E00E9460
:10219000750B0039B1E01B0719F468E871E09FC0C6
:1021A0000139E1E01E0719F464E971E098C00239D1
:1021B000F1E01F0719F460EA71E091C0033921E0F2
:1021C000120719F46CEA71E08AC0043931E0130790
:1021D00019F468EB71E083C0053941E0140719F484
:1021E00064EC71E07CC0063981E0180719F460EDF9
:1021F00071E075C0073991E0190719F46CED71E0D1
:102200006EC00839A1E01A0719F468EE71E067C0E2
:102210000939B1E01B0719F464EF71E060C00A39B5
:10222000E1E01E0719F460E072E059C00B39F1E0FB
:102230001F0719F46CE072E052C0043F21E012075E
:1022400019F468E172E04BC0053F31E0130719F45F
:1022500064E272E044C0063F41E0140719F460E311
:1022600072E03DC0073F81E0180719F46CE372E0AB
:1022700036C0083F91E0190719F468E472E02FC0F6
:10228000093FA1E01A0719F464E572E028C00A3F8B
:10229000B1E01B0719F460E672E021C00B3FE1E0FA
:1022A0001E0719F46CE672E01AC00C3FF1E01F073C
:1022B00019F468E772E013C00D3F21E0120719F42A
:1022C00064E872E00CC00E3F31E0130719F460E9D6
:1022D00072E005C00F3F114041F46CE972E080915B
:1022E000BD029091BE020E941A0AF694E7948FEF05
:1022F000A81AB80A9CE4A91692E0B90609F026CFFC
:102300000E94190237CE0F931F93CF93DF93823031
:10231000910510F482E090E0E0915E03F0915F039C
:1023200020E030E0A0E0B0E0309719F14081518129
:102330000281138148175907C8F08417950769F47B
:10234000109731F012960C93129713961C9327C096
:1023500000935E0310935F0322C02115310519F02D
:102360004217530718F49A01BD01EF01DF01F8018C
:10237000DBCF21153105F9F0281B390B243031054D
:1023800080F48A819B816115710521F0FB019383A3
:10239000828304C090935F0380935E03FE013296B4
:1023A00044C0FE01E20FF31F819391932250310943
:1023B000398328833AC020915C0330915D03232B3D
:1023C00041F420910D0130910E0130935D03209373
:1023D0005C0320910B0130910C012115310541F472
:1023E0002DB73EB740910F0150911001241B350BC2
:1023F000E0915C03F0915D03E217F307A0F42E1B5C
:102400003F0B2817390778F0AC014E5F5F4F241758
:10241000350748F04E0F5F1F50935D0340935C03F8
:102420008193919302C0E0E0F0E0CF01DF91CF9182
:102430001F910F910895CF93DF93009709F481C006
:10244000FC01329713821282A0915E03B0915F0368
:10245000109781F420813181820F931F20915C03BA
:1024600030915D032817390751F5F0935D03E09330
:102470005C0367C0ED0120E030E0CE17DF0740F4D9
:102480004A815B819E0141155105F1F0EA01F5CFCA
:10249000D383C28340815181840F951FC817D90708
:1024A00059F488819981840F951F029691838083C6
:1024B0008A819B81938382832115310529F4F093CE
:1024C0005F03E0935E033DC0E901FB83EA8349912A
:1024D0005991C40FD51FEC17FD0761F480819181DC
:1024E000840F951F0296E9019983888382819381E5
:1024F0009B838A83E0E0F0E012968D919C91139784
:10250000009719F0FD01DC01F7CF8D919C91119797
:102510009D012E5F3F4F820F931F20915C033091EE
:102520005D032817390769F4309729F410925F0387
:1025300010925E0302C013821282B0935D03A093D7
:102540005C03DF91CF91089597FB072E16F400945A
:1025500007D077FD09D00E94E51207FC05D03EF4B4
:10256000909581959F4F0895709561957F4F08953F
:10257000A1E21A2EAA1BBB1BFD010DC0AA1FBB1F87
:10258000EE1FFF1FA217B307E407F50720F0A21BF9
:10259000B30BE40BF50B661F771F881F991F1A9466
:1025A00069F760957095809590959B01AC01BD0190
:1025B000CF0108950E94FF12A59F900DB49F900D2A
:1025C000A49F800D911D11240895AA1BBB1B51E1EE
:1025D00007C0AA1FBB1FA617B70710F0A61BB70B93
:1025E000881F991F5A95A9F780959095BC01CD0138
:1025F0000895EE0FFF1F0590F491E02D0994A29F1E
:10260000B001B39FC001A39F700D811D1124911DC6
:10261000B29F700D811D1124911D089581E090E0FD
:10262000F8940C942113FB01DC014150504030F030
:102630008D910190801919F40020B9F7881B990B2E
:062640000895F894FFCF9D
:10264600010000000100000100000000006003809E
:102656000000000000AA0113014101F701720150B8
:102666000164010D0A006461746100524946460026
:102676005741564500666D742000496E697469615C
:102686006C697A696E67206E657720706C61796512
:10269600722E2E2E0054686572652063616E206F5F
:1026A6006E6C79206265206F6E6520706C6179654D
:1026B60072212100446F6E6500506C6179696E6706
:1026C600206E6F74653A20004143504E4F34464E9B
:1026D600574156004143504E4F34474257415600EA
:1026E6004143504E4F34474E574156004143504E9A
:1026F6004F344142574156004143504E4F34414EAC
:10270600574156004143504E4F34424257415600BE
:102716004143504E4F34424E574156004143504E6E
:102726004F34434E574156004143504E4F34444276
:10273600574156004143504E4F34444E5741560080
:102746004143504E4F344542574156004143504E47
:102756004F34454E574156004143504E4F35464E35
:10276600574156004143504E4F3547425741560058
:102776004143504E4F35474E574156004143504E08
:102786004F354142574156004143504E4F35414E19
:10279600574156004143504E4F354242574156002D
:1027A6004143504E4F35424E574156004143504EDD
:1027B6004F35434E574156004143504E4F354442E4
:1027C600574156004143504E4F35444E57415600EF
:1027D6004143504E4F354542574156004143504EB6
:0827E6004F35454E57415600E6
:00000001FF
